:020000000C945E
:1000020063000C9496000C949A000C9400000C94DB
:1000120000000C9400000C9400000C9400000C945E
:1000220000000C9400000C9400000C9400000C944E
:1000320000000C9400000C944D010C9400000C94F0
:1000420000000C9400000C9400000C9400000C942E
:1000520000000C9400000C9400000C9400000C941E
:1000620000000C9400000C9400000C9400000C940E
:1000720000000C9496010C9400000C9400000C9467
:1000820000000C9400000C94000009010504060213
:100092000A0809080A02060405010000000001001E
:1000A2002D4E414E00494E460000080000058C00CE
:1000B200080008059400040006009C0001001D05CC
:1000C200A0000000F894EE27ECBBF1E0F5BFE5BF1D
:1000D200E0936C00F8E1F1BDE1BD8DE0A2E0BB2749
:1000E200ED938A95E9F780E090E1A0E0B1E0ED932D
:1000F2000197E9F7ECEAF0E085919591009761F0BC
:10010200A591B59105901590BF01F00105900D9252
:100112000197E1F7FB01F0CF8BBFEFEFEDBFE0E11D
:10012200EEBFC0E0D5E00C94E801EA93E1E05E2E78
:1001320003C0EA93E1E04E2EE9911895E2B3EC7F19
:10014200E2BBE1B3EC7FE1BBEAE0E0936A00E0E00E
:10015200EABFE3E0E9BFE8BF08950E94BF0300E001
:1001620010E020E030E0E4E0EEBDE0938A00EC81B4
:10017200E0931405E0E0E0931B05E0931C05EC819D
:10018200FD81E430A0E0FA07C1F40E9474020E1768
:100192001F072CF00E9474022E173F076CF4E091A7
:1001A2001B05E03011F00E947902E0911C05E0305D
:1001B20011F00E947F02E9CF67C0E830A0E0FA07A1
:1001C200C1F40E947402F595E7950E171F071CF003
:1001D2002E173F076CF4E0911B05E03011F00E94EE
:1001E2007902E0911C05E03011F00E947F02E9CF14
:1001F2004BC0E530A0E0FA0721F0E630A0E0FA07B4
:10020200E1F4E0911905F0911A050E171F073CF071
:10021200E0911705F09118052E173F076CF4E09155
:100222001B05E03011F00E947902E0911C05E030DC
:1002320011F00E947F02E5CF27C0E730A0E0FA0765
:1002420019F5A0911905B0911A05E2E0F0E00E94BB
:1002520081030E171F075CF0A0911705B0911805D6
:10026200E2E0F0E00E9481032E173F076CF4E09178
:100272001B05E03011F00E947902E0911C05E0308C
:1002820011F00E947F02DDCFE0E0EEBDE0938A0034
:100292000E94C403269608950E948502E530A0E0DC
:1002A200FA07A1F40E949202E029E2BB0E949202A4
:1002B200E15FE021E2BBF50131975F010024A01468
:1002C200B0041CF4E7E0F0E05F0124C0E630A0E0F7
:1002D200FA0721F0E730A0E0FA0709F404C0E4309D
:1002E200A0E0FA0709F404C0E830A0E0FA0791F4AC
:1002F2000E949202E029E2BB0E949202E15FE021A9
:10030200E2BBF50131965F01D501E8E0F0E00E9421
:1003120099035F01E1E0E0931B05E0911105F070A4
:10032200EDBDE0911005ECBD48C00E948502E630AB
:10033200A0E0FA0721F0E730A0E0FA07A1F40E945A
:100342009B02E029E3B90E949B02E15FE021E3B94D
:10035200F60131976F010024C014D0041CF4E7E0C9
:10036200F0E06F011FC0E430A0E0FA0721F0E830AE
:10037200A0E0FA0709F404C0E530A0E0FA0791F41E
:100382000E949B02E029E3B90E949B02E15FE02107
:10039200E3B9F60131966F01D601E8E0F0E00E9480
:1003A20099036F01E1E0E0931C05E0911305E093EE
:1003B2008900E0911205E0938800E991EFBFF9917D
:1003C200E991B991A9919991199009901895249759
:1003D200EBE4F5E16DEC7EE30E94BA030E94A40215
:1003E200A0E0B0E084E393E40E94A702E093150545
:1003F200F09316050E94A402A3EAB5E987E892E405
:100402000E94A702E0931705F09318050E94A40228
:10041200A6EABBE184E892E40E94A702E0931905F0
:10042200F0931A05E2B3EF70E2BBE1B3E06FE1BB18
:10043200E3B1EF70E3B9E2B1E06FE2B9E0E0EFBD42
:10044200E4E0EEBDE0E0EDBDECBDE7BDE6BDEBBD39
:10045200EABDE9BDE8BDE0937900E0937800E0935E
:100462008B00E4E0E0938A00E0E0E0938900E0930F
:100472008800E0938100E0938000E0938700E0939E
:100482008600E0938500E0938400E0938300E0938C
:100492008200E4E0E7BFE0937D007894AA24BB24C5
:1004A200CC24DD247894E8E7FFEFE0931005F09385
:1004B2001105E0931205F0931305EFE9F0E05524DE
:1004C20044240E94AC020E94AC020E94AC020E9430
:1004D200AC020E94AC020E94AC020E94AC020E94DA
:1004E200AC022496FFCFE0911505F0911605089510
:1004F2000F5F1F4FE0E0E0931B0508952F5F3F4F12
:10050200E0E0E0931C0508950A921A929A93AA9346
:10051200BA93EA93FA93EFB7EA93E0911405F0E005
:10052200089502B2A8E0B5E0AA0DBB1DEC91E295D8
:10053200E07F089503B0A0E0B5E0AC0DBD1DEC91E5
:10054200E295E07F08950E94B50308950E94280372
:100552000E94E1020895E5E0F0E0FA93EA930C9438
:10056200AE00552342F4503811F4E0FF04C0319636
:10057200691F791F6BF050E8572711F45F9355C03C
:100582005F3F31F0660F000C57956795752F089500
:100592005F9300200AF055C04EC050E8192E152274
:1005A200880F991F9527550F879550E8072E05222A
:1005B200660F771F7527550F67950895689401C0D8
:1005C200E8945F93F2DF703818F07F3F08F42DC093
:1005D20056E1571BAAF4519558300EF4593030F0B9
:1005E200EFEFFFEF6FEF7FE777F91AC07727552319
:1005F200B9F0EE0FFF1F661F771F5A95D1F710C093
:100602007727583028F0EF2FF62F672F5850F9CF61
:10061200552331F076956795F795E7955A95D1F779
:1006220000200AF45DD05F910895EE27FF27662728
:1006320077275F910895EFEFFFEF6FE77FEF5F910D
:100642000895EFEFFFEF6FE77FE75F9108955F9304
:10065200A4DF703821F411200AF4EDCFF2CF9038E4
:1006620009F4E3CF01240894970B1BF4D4F3002080
:10067200F3CF792F1F932F933F934F931124112779
:10068200222733274427552790E2AE17BF07860754
:10069200410730F0AE1BBF0B860B410B089401C023
:1006A2008894551F221F331F111CAA1FBB1F881FAE
:1006B200441F9A9551F7F901612D4F913F912F9166
:1006C2001F91662332F0550FEE1FFF1F661F7A95AA
:1006D20043F247DF5F910895F195E195F040089567
:1006E200F09560957095E195FF4F6F4F7F4F08959C
:1006F200FA9FF02DEB9FF00DEA9FE02DF10D08958A
:1007020025D0F6DF0EF4E8DF08950024112490E1ED
:10071200AA0FBB1F001C111C0E1A1F0A18F40E0E82
:100722001F1E01C0A1609A9599F7FD01D00108959D
:10073200E894B7FF04C0A095B09511966894F7FDB0
:10074200CBDFE3DFFD010EF4C7DF0895E894F7FF86
:1007520002C0C2DF6894B7FF06C0A095B09511969B
:1007620000F8039400FA0895E881F9816A817B8197
:100772000895E883F9836A837B8308953A932A93E1
:100782001A930A9308953B812A8119810881089559
:00000001FF
