:100000000C9467000C940B020C9410020C940000EA
:100010000C9400000C9400000C9400000C94000060
:100020000C9400000C9400000C9400000C94000050
:100030000C9400000C9400000C9459010C940000E6
:100040000C9400000C9400000C9400000C94000030
:100050000C9400000C9400000C9400000C94000020
:100060000C9400000C9400000C9400000C94000010
:100070000C9400000C94A0010C9400000C9400005F
:100080000C9400000C9400000C9400001027E8036E
:1000900064000A00010000100001100001000901C5
:1000A000050406020A0809080A02060405010100FF
:1000B0002D4E414E00494E460000080000059E00AE
:1000C00008000805A60001001805AE000000F8941D
:1000D000EE27ECBBF1E0F5BFE5BFE0936C00F8E183
:1000E000F1BDE1BD8DE0A2E0BB27ED938A95E9F774
:1000F00080E090E1A0E0B1E0ED930197E9F7EAEB51
:10010000F0E085919591009761F0A591B5910590EA
:100110001590BF01F00105900D920197E1F7FB01E9
:10012000F0CF8BBFEFEFEDBFE0E1EEBFC0E0D5E079
:100130000C94EF012497E2B3EF70E2BBE4E0E7BF79
:10014000E0937D00EBE4F5E16DEC7EE30E9451036A
:10015000A0E0B0E084E393E40E94BF020E94780232
:10016000E0931005F09311050E944C03A8E2BEEC49
:1001700080E892E40E94BF020E947802E093120598
:10018000F0931305249608950E94560300E010E0B2
:1001900020E030E0E4E0EEBDE0938A00DC80E0E0C7
:1001A000E0931405E0931505EC81FD81E430A0E0B7
:1001B000FA07C1F40E9416020E171F072CF00E94C6
:1001C00016022E173F076CF4E0911405E03011F091
:1001D0000E941B02E0911505E03011F00E942102FF
:1001E000E9CF5FC0E830A0E0FA07C1F40E94160230
:1001F000F595E7950E171F071CF02E173F076CF4B7
:10020000E0911405E03011F00E941B02E091150509
:10021000E03011F00E942102E9CF43C0E530A0E0B8
:10022000FA0721F0E630A0E0FA07E1F4E0911205C8
:10023000F09113050E171F073CF0E0911205F091A5
:1002400013052E173F076CF4E0911405E03011F010
:100250000E941B02E0911505E03011F00E9421027E
:10026000E5CF1FC0E730A0E0FA07D9F4A09112054E
:10027000B0911305E2E0F0E00E9418030E171F078B
:100280001CF02E173F076CF4E0911405E03011F0DC
:100290000E941B02E0911505E03011F00E9421023E
:1002A000E5CFE0E0EEBDE0938A000E945B03269676
:1002B00008950E942702E530A0E0FA07A1F40E9409
:1002C0003302E029E2BB0E943302E15FE021E2BB9E
:1002D000F20131972F010024401450041CF4E7E090
:1002E000F0E02F0124C0E630A0E0FA0721F0E7306B
:1002F000A0E0FA0709F404C0E430A0E0FA0709F42A
:1003000004C0E830A0E0FA0791F40E943302E0292B
:10031000E2BB0E943302E15FE021E2BBF2013196D1
:100320002F01D201E8E0F0E00E9430032F01E1E06C
:10033000E0931405E92DF070EDBDE82DECBD45C04E
:100340000E942702E630A0E0FA0721F0E730A0E0A3
:10035000FA07A1F40E943C02E029E3B90E943C02A2
:10036000E15FE021E3B9F30131973F01002460141C
:1003700070041CF4E7E0F0E03F011FC0E430A0E0AF
:10038000FA0721F0E830A0E0FA0709F404C0E530EC
:10039000A0E0FA0791F40E943C02E029E3B90E9430
:1003A0003C02E15FE021E3B9F30131963F01D30163
:1003B000E8E0F0E00E9430033F01E1E0E093150542
:1003C000B0928900EA2DE0938800E991EFBFF9919E
:1003D000E991B991A9919991199009901895AADE7E
:1003E00044245524662477247894E8E7FFEF4F01EE
:1003F0005F01E4E0F0E00E944502E5E0F0E00E94E9
:100400004502E6E0F0E00E944502E8E0F0E00E94EC
:100410004502FFCFFFCFEA93E1E0E093160504C069
:10042000EA93E1E0E0931705E9911895E091100552
:10043000F091110508950F5F1F4FE0E0E093140560
:1004400008952F5F3F4FE0E0E093150508950A926D
:100450001A929A93AA93BA93EA93FA93EFB7EA930C
:10046000ED2DF0E0089502B2A8E0B5E0A40DB51DB1
:10047000EC91E295E07F089503B0A0E0B5E0A60D11
:10048000B71DEC91E295E07F0895FA93EA930C94FE
:10049000C400552342F4503811F4E0FF04C03196F3
:1004A000691F791F6BF050E8572711F45F9355C00F
:1004B0005F3F31F0660F000C57956795752F0895D3
:1004C0005F9300200AF055C04EC050E8192E152247
:1004D000880F991F9527550F879550E8072E0522FD
:1004E000660F771F7527550F67950895689401C0AB
:1004F000E8945F93F2DF703818F07F3F08F42DC066
:1005000056E1571BAAF4519558300EF4593030F08B
:10051000EFEFFFEF6FEF7FE777F91AC077275523EB
:10052000B9F0EE0FFF1F661F771F5A95D1F710C065
:100530007727583028F0EF2FF62F672F5850F9CF34
:10054000552331F076956795F795E7955A95D1F74C
:1005500000200AF45DD05F910895EE27FF276627FB
:1005600077275F910895EFEFFFEF6FE77FEF5F91E0
:100570000895EFEFFFEF6FE77FE75F9108955F93D7
:10058000A4DF703821F411200AF4EDCFF2CF9038B7
:1005900009F4E3CF01240894970B1BF4D4F3002053
:1005A000F3CF792F1F932F933F934F93112411274C
:1005B000222733274427552790E2AE17BF07860727
:1005C000410730F0AE1BBF0B860B410B089401C0F6
:1005D0008894551F221F331F111CAA1FBB1F881F81
:1005E000441F9A9551F7F901612D4F913F912F9139
:1005F0001F91662332F0550FEE1FFF1F661F7A957D
:1006000043F247DF5F910895F195E195F040089539
:10061000F09560957095E195FF4F6F4F7F4F08956E
:10062000FA9FF02DEB9FF00DEA9FE02DF10D08955C
:1006300025D0F6DF0EF4E8DF08950024112490E1C0
:10064000AA0FBB1F001C111C0E1A1F0A18F40E0E55
:100650001F1E01C0A1609A9599F7FD01D001089570
:10066000E894B7FF04C0A095B09511966894F7FD83
:10067000CBDFE3DFFD010EF4C7DF0895E894F7FF59
:1006800002C0C2DF6894B7FF06C0A095B09511966E
:1006900000F8039400FA0895E881F9816A817B816A
:1006A0000895E883F9836A837B8308953A932A93B4
:1006B0001A930A9308953B812A811981088108952C
:00000001FF
