:020000000C945E
:100002006E000C9478020C947D020C9400000C9407
:1000120000000C9400000C9400000C9400000C945E
:1000220000000C9400000C9400000C9400000C944E
:1000320000000C9400000C94E2010C9400000C945B
:1000420000000C9400000C9400000C9400000C942E
:1000520000000C9400000C9400000C9400000C941E
:1000620000000C9400000C9400000C9400000C940E
:1000720000000C9429020C9400000C9400000C94D3
:1000820000000C9400000C9400001027E8036400A8
:100092000A0001000010000110000100090105041E
:1000A20006020A0809080A02060405010000000007
:1000B20078FF78FF01002D4E414E00494E46000068
:1000C200080002059E0008000A05A60008000400B8
:1000D200AE0001001A05B6000000F894EE27ECBB52
:1000E200F1E0F5BFE5BFE0936C00F8E1F1BDE1BDE1
:1000F2008DE0A2E0BB27ED938A95E9F780E090E1DD
:10010200A0E0B1E0ED930197E9F7E2ECF0E0859130
:100112009591009761F0A591B59105901590BF0159
:10012200F00105900D920197E1F7FB01F0CF8BBF33
:10013200EFEFEDBFE0E1EEBFC0E0D5E00C94A1002F
:100142000E94CE000AD00E94B9007894E4E0F0E068
:10015200FA93EA930E944501FFCFE0916200EF70AB
:10016200E0936200E0916100E06FE0936100089526
:10017200E8B3EF71E8BBE7B3E06EE7BBE091620082
:10018200E87FE0936200E0916100E87FE093610024
:10019200E0E4E7B9E7E8E6B908952497E2B3EF703F
:1001A200E2BBE1B3E06FE1BBE3B1EF70E3B9E2B10F
:1001B200E06FE2B9E0E0EFBDE4E0EEBDE0E0EDBD0E
:1001C200ECBDE7BDE6BDEBBDEABDE9BDE8BDE09330
:1001D2007900E0937800E0938B00E4E0E0938A00FA
:1001E200E0E0E0938900E0938800E0938100E093EF
:1001F2008000E0938700E0938600E0938500E0931F
:100202008400E0938300E0938200E4E0E7BFE093A0
:100212007D004424552466247724E8E7FFEF4F014C
:100222005F01E2B3EF70E2BBE4E0E7BFE0937D0081
:10023200EBE4F5E16DEC7EE30E94C2030E948302CF
:10024200A0E0B0E084E393E40E948602E09312050A
:10025200F09313050E948302A3EAB5E987E892E4CA
:100262000E948602E0931405F09315050E94830212
:10027200A6EABBE184E892E40E948602E0931605B6
:10028200F0931705249608950E94C70300E010E03A
:1002920020E030E0E4E0EEBDE0938A00DC80E0E0C4
:1002A200E0931805E0931905EC81FD81E430A0E0AC
:1002B200FA07C1F40E948B020E171F072CF00E944E
:1002C2008B022E173F076CF4E0911805E03011F015
:1002D2000E949002E0911905E03011F00E9496020E
:1002E200E9CF67C0E830A0E0FA07C1F40E948B02B0
:1002F200F595E7950E171F071CF02E173F076CF4B4
:10030200E0911805E03011F00E949002E091190589
:10031200E03011F00E949602E9CF4BC0E530A0E038
:10032200FA0721F0E630A0E0FA07E1F4E0911605C1
:10033200F09117050E171F073CF0E0911405F0919C
:1003420015052E173F076CF4E0911805E03011F007
:100352000E949002E0911905E03011F00E9496028D
:10036200E5CF27C0E730A0E0FA0719F5A0911605FE
:10037200B0911705E2E0F0E00E9489030E171F0713
:100382005CF0A0911405B0911505E2E0F0E00E9446
:1003920089032E173F076CF4E0911805E03011F045
:1003A2000E949002E0911905E03011F00E9496023D
:1003B200DDCFE0E0EEBDE0938A000E94CC032696FA
:1003C20008950E949C02E530A0E0FA07A1F40E9481
:1003D200A802E029E2BB0E94A802E15FE021E2BBA1
:1003E200F20131972F010024401450041CF4E7E07D
:1003F200F0E02F0124C0E630A0E0FA0721F0E73058
:10040200A0E0FA0709F404C0E430A0E0FA0709F416
:1004120004C0E830A0E0FA0791F40E94A802E029A3
:10042200E2BB0E94A802E15FE021E2BBF201319649
:100432002F01D201E8E0F0E00E94A1032F01E1E0E8
:10044200E0931805E92DF070EDBDE82DECBD45C037
:100452000E949C02E630A0E0FA0721F0E730A0E01B
:10046200FA07A1F40E94B102E029E3B90E94B102A5
:10047200E15FE021E3B9F30131973F010024601409
:1004820070041CF4E7E0F0E03F011FC0E430A0E09C
:10049200FA0721F0E830A0E0FA0709F404C0E530D9
:1004A200A0E0FA0791F40E94B102E029E3B90E94A8
:1004B200B102E15FE021E3B9F30131963F01D301DB
:1004C200E8E0F0E00E94A1033F01E1E0E0931905BA
:1004D200B0928900EA2DE0938800E991EFBFF9918B
:1004E200E991B991A9919991199009901895EA9376
:1004F200E1E0E093000504C0EA93E1E0E093010546
:10050200E99118950E94BD0308950E9430030E944C
:10051200E9020895E0911205F091130508950F5F25
:100522001F4FE0E0E093180508952F5F3F4FE0E092
:10053200E093190508950A921A929A93AA93BA938C
:10054200EA93FA93EFB7EA93ED2DF0E0089502B241
:10055200AAE0B5E0A40DB51DEC91E295E07F089507
:1005620003B0A2E0B5E0A60DB71DEC91E295E07FE5
:100572000895552342F4503811F4E0FF04C0319637
:10058200691F791F6BF050E8572711F45F9355C02C
:100592005F3F31F0660F000C57956795752F0895F0
:1005A2005F9300200AF055C04EC050E8192E152264
:1005B200880F991F9527550F879550E8072E05221A
:1005C200660F771F7527550F67950895689401C0C8
:1005D200E8945F93F2DF703818F07F3F08F42DC083
:1005E20056E1571BAAF4519558300EF4593030F0A9
:1005F200EFEFFFEF6FEF7FE777F91AC07727552309
:10060200B9F0EE0FFF1F661F771F5A95D1F710C082
:100612007727583028F0EF2FF62F672F5850F9CF51
:10062200552331F076956795F795E7955A95D1F769
:1006320000200AF45DD05F910895EE27FF27662718
:1006420077275F910895EFEFFFEF6FE77FEF5F91FD
:100652000895EFEFFFEF6FE77FE75F9108955F93F4
:10066200A4DF703821F411200AF4EDCFF2CF9038D4
:1006720009F4E3CF01240894970B1BF4D4F3002070
:10068200F3CF792F1F932F933F934F931124112769
:10069200222733274427552790E2AE17BF07860744
:1006A200410730F0AE1BBF0B860B410B089401C013
:1006B2008894551F221F331F111CAA1FBB1F881F9E
:1006C200441F9A9551F7F901612D4F913F912F9156
:1006D2001F91662332F0550FEE1FFF1F661F7A959A
:1006E20043F247DF5F910895F195E195F040089557
:1006F200F09560957095E195FF4F6F4F7F4F08958C
:10070200FA9FF02DEB9FF00DEA9FE02DF10D089579
:1007120025D0F6DF0EF4E8DF08950024112490E1DD
:10072200AA0FBB1F001C111C0E1A1F0A18F40E0E72
:100732001F1E01C0A1609A9599F7FD01D00108958D
:10074200E894B7FF04C0A095B09511966894F7FDA0
:10075200CBDFE3DFFD010EF4C7DF0895E894F7FF76
:1007620002C0C2DF6894B7FF06C0A095B09511968B
:1007720000F8039400FA0895E881F9816A817B8187
:100782000895E883F9836A837B8308953A932A93D1
:100792001A930A9308953B812A8119810881089549
:00000001FF
