:040000000C944E000E
:100004000C948B000C94A8000C9400000C94000039
:100014000C9400000C9400000C9400000C9400005C
:100024000C9400000C9400000C9400000C9400004C
:100034000C9400000C9400000C9400000C9400003C
:100044000C9400000C9400000C9400000C9400002C
:100054000C9400000C9400000C9400000C9400001C
:100064000C9400000C9400000C9400000C9400000C
:100074000C9400000C9400000C9400000C940000FC
:100084000C9400000C94000000000000000001002B
:10009400080006008C000000F894EE27ECBBF1E0A9
:1000A400F5BFE5BFE0936C00F8E1F1BDE1BD8DE083
:1000B400A2E0BB27ED938A95E9F780E090E1A0E008
:1000C400B1E0ED930197E9F7E4E9F0E085919591CA
:1000D400009761F0A591B59105901590BF01F001CD
:1000E40005900D920197E1F7FB01F0CF8BBFEFEF85
:1000F400EDBFE0E1EEBFC0E0D5E00C94B300EAE070
:10010400E0936A00E0E0EABFE3E0E9BFE8BF789487
:100114000895AA93EA93FA93EFB7EA93A0916A0039
:10012400AA3021F4CC24DD24E9E008C0A0916A00BF
:10013400A93031F4E1E0F0E06F01EAE0E0936A0015
:10014400E991EFBFF991E991A9911895EA93E1E05A
:100154004E2EE99118951A93142D4424E12F1991E8
:100164000895CDDF32D0E1E05E2E442478940C2C47
:100174000D28F1F4E82D34D0E8EEF3E0FA93EA9395
:100184000E94F900F40131964F01E3E0F0E0E81534
:10019400F90534F4D401E4E0F0E00E9424014F01B5
:1001A400EFEFE0936200E1E0F0E0EC15FD05F9F615
:1001B400F401319715D0CFDFE13029F4E0E0E0938A
:1001C400620088249924D3CFFFCFE0916200EF70BE
:1001D400E0936200E0916100E06FE09361000895B4
:1001E400A0E10E940901E095E09362000895E9917D
:1001F400F991309639F080EA9FE00197F1F7A895DC
:100204003197C9F70895F195E195F0400895EE23EB
:100214000E2EEA2F19F0EE0F0A94E9F70895002440
:10022400112490E1AA0FBB1F001C111C0E1A1F0AF7
:1002340018F40E0E1F1E01C0A1609A9599F7FD01D6
:10024400D0010895E894B7FF04C0A095B095119625
:100254006894F7FDD8DFE3DFFD010EF4D4DF0895E1
:00000001FF
