:080000000C944B000C9400006D
:100008000C9400000C9400000C9400000C94000068
:100018000C9400000C9400000C9400000C94000058
:100028000C9400000C9400000C9400000C94000048
:100038000C9400000C9400000C9400000C94000038
:100048000C9400000C9400000C9400000C94000028
:100058000C9400000C9400000C9400000C94000018
:100068000C9400000C9400000C9400000C94000008
:100078000C9400000C9400000C9400000C940000F8
:100088000C9400000000020004008C000000F894AA
:10009800EE27ECBBF1E0F5BFE5BFE0936C00F8E1BB
:1000A800F1BDE1BD8DE0A2E0BB27ED938A95E9F7AC
:1000B80080E090E1A0E0B1E0ED930197E9F7EEE888
:1000C800F0E085919591009761F0A591B591059023
:1000D8001590BF01F00105900D920197E1F7FB0122
:1000E800F0CF8BBFEFEFEDBFE0E1EEBFC0E0D5E0B2
:1000F8000C949B00E0916200EF70E0936200E09145
:100108006100E06FE09361000895A2E6B0E00A2E76
:10011800EC91A881EA2B07C0A2E6B0E00A2EAC91C8
:10012800E881E095EA23A02DEC9322960895E2DF7A
:1001380044245524E2E3F0E04E165F066CF427D021
:100148002BD05A924A920E94F80021D035D044D040
:10015800F20131962F01EECFE2E3F0E0E415F50568
:10016800A1F444245524E2E3F0E04E165F066CF453
:100178000ED012D031D00BD01FD05A924A920E9482
:10018800F800F20131962F01EECFD2CFFFCFE0E198
:10019800F0E0FA93EA930895BFDFE0E2F0E0FA9323
:1001A800EA93BADFE0E4F0E0FA93EA93B5DFE0E837
:1001B800F0E0FA93EA93B0CFA8DFE0E2F0E0FA9338
:1001C800EA93A3DFE0E4F0E0FA93EA939EDFE0E845
:1001D800F0E0FA93EA9399CFE2E3F0E0E419F50945
:1001E800FA93EA930C94F800E991F991309639F072
:1001F80080EA9FE00197F1F7A8953197C9F708952C
:00000001FF
