:100000000C944C000C949E000C94A3000C940000E3
:100010000C9400000C9400000C9400000C94000060
:100020000C9400000C9400000C9400000C94000050
:100030000C9400000C9400000C9400000C94000040
:100040000C9400000C9400000C9400000C94000030
:100050000C9400000C9400000C9400000C94000020
:100060000C9400000C9400000C9400000C94000010
:100070000C9400000C9400000C9400000C94000000
:100080000C9400000C9400000C9400000000000090
:10009000040004008C000000F894EE27ECBBF1E0B3
:1000A000F5BFE5BFE0936C00F8E1F1BDE1BD8DE087
:1000B000A2E0BB27ED938A95E9F780E090E1A0E00C
:1000C000B1E0ED930197E9F7E0E9F0E085919591D2
:1000D000009761F0A591B59105901590BF01F001D1
:1000E00005900D920197E1F7FB01F0CF8BBFEFEF89
:1000F000EDBFE0E1EEBFC0E0D5E00C94A900E2B3B3
:10010000EC7FE2BBE1B3EC7FE1BBEAE0E0936A00A5
:10011000E0E0EABFE3E0E9BFE8BF08951A93109179
:100120000005E0E0E093000506C01A931091010578
:10013000E0E0E0930105E12F19910895EA93E1E0F1
:10014000E093000504C0EA93E1E0E0930105E99142
:100150001895D5DF47D0E0E0E0930005E093010576
:10016000EFEFE09362007894D9DFE130D9F44424D2
:100170005524E2E3F0E04E165F06A4F450D054D0CC
:10018000E2E3F0E0E419F509FA93EA930E943401FE
:1001900046D05AD05A924A920E943401F2013196C6
:1001A0002F01E7CFC2DFE130D9F466247724E2E300
:1001B000F0E06E167F06A4F432D036D07A926A92BE
:1001C0000E9434012CD040D0E2E3F0E0E619F709B8
:1001D000FA93EA930E943401F20131962F01E7CF9E
:1001E000C3CFFFCFE0916200EF70E0936200E09137
:1001F0006100E06FE09361000895A2E6B0E00A2E8E
:10020000EC91A881EA2B07C0A2E6B0E00A2EAC91DF
:10021000E881E095EA23A02DEC9322960895E0E191
:10022000F0E0FA93EA930895EFDFE0E2F0E0FA936A
:10023000EA93EADFE0E4F0E0FA93EA93E5DFE0E84E
:10024000F0E0FA93EA93E0CFD8DFE0E2F0E0FA934F
:10025000EA93D3DFE0E4F0E0FA93EA93CEDFE0E85C
:10026000F0E0FA93EA93C9CFE991F991309639F029
:1002700080EA9FE00197F1F7A8953197C9F70895B3
:00000001FF
