:060000000C944D000C946D
:1000060080000C9484000C9400000C9400000C9466
:1000160000000C9400000C9400000C9400000C945A
:1000260000000C9400000C9400000C9400000C944A
:1000360000000C9400000C9400000C9400000C943A
:1000460000000C9400000C9400000C9400000C942A
:1000560000000C9400000C9400000C9400000C941A
:1000660000000C9400000C9400000C9400000C940A
:1000760000000C9400000C9400000C9400000C94FA
:1000860000000C94000000000000000006000600BE
:100096008C000000F894EE27ECBBF1E0F5BFE5BF5D
:1000A600E0936C00F8E1F1BDE1BD8DE0A2E0BB2775
:1000B600ED938A95E9F780E090E1A0E0B1E0ED9359
:1000C6000197E9F7E2E9F0E085919591009761F0F3
:1000D600A591B59105901590BF01F00105900D927F
:1000E6000197E1F7FB01F0CF8BBFEFEFEDBFE0E14A
:1000F600EEBFC0E0D5E00C94A200EA93E1E05E2EEC
:1001060003C0EA93E1E04E2EE9911895E2B3EC7F45
:10011600E2BBE1B3EC7FE1BBEAE0E0936A00E0E03A
:10012600EABFE3E0E9BFE8BF08951A93152D552409
:1001360003C01A93142D4424E12F19910895E6DF84
:100146009FD0552444247894F0DFE13019F4F5016A
:1001560031965F01E1E0F0E0EA15FB0521F4EFEFEF
:10016600E0936200A9D0E2E0F0E0EA15FB0521F495
:10017600EFEFE0936200A5D0E3E0F0E0EA15FB05BF
:1001860021F4EFEFE0936200A1D0D3DFE13011F06C
:100196000C944101E1E0F0E0EA15FB0541F52297F8
:1001A600E0E0E883E983A881B9811A97E4F484D072
:1001B60088D08CD0E0E8F0E0FA93EA9372D08BD046
:1001C600E0E1F0E08ED0E0E2F0E08BD0E0E4F0E0B9
:1001D60088D0E0E8F0E085D07ED0E881F9813196DC
:1001E600E883F983E0CFAA24BB24229647C0E2E045
:1001F600F0E0EA15FB05E9F42297E0E0E883E983FD
:10020600A881B98114978CF4E881A0E10E9483014A
:10021600E095E09362005FD0EFEFE0936200E88143
:10022600F9813196E883F983EBCFAA24BB24229681
:1002360025C0E3E0F0E0EA15FB0501F52197E0E0D3
:10024600E88373DFE13019F4E881EF5FE88371DF5B
:10025600E13091F4E881E295E07FE095E093620079
:10026600E8EEF3E0FA93EA930E947701EFEFE0936A
:100276006200AA24BB2401C0E4CF219665CFFFCF3C
:10028600A2E6B0E0EC91EC93E0916100E06FE093C0
:1002960061000895A2E6B0E00A2EEC91A881EA2B4F
:1002A60007C0A2E6B0E00A2EAC91E881E095EA2309
:1002B600A02DEC9322960895E0E1F0E0FA93EA93FC
:1002C600F0CFE0E2F0E0FA93EA93EBCFE0E4F0E07F
:1002D600FA93EA93E6CFE4EFF1E0FA93EA930C940B
:1002E6007701FA93EA93D6CFE991F991309639F0EE
:1002F60080EA9FE00197F1F7A8953197C9F708952D
:10030600EE230E2EEA2F19F0EE0F0A94E9F7089560
:00000001FF
