:0A0000000C944B000C9400000C94CB
:10000A0000000C9400000C9400000C9400000C9466
:10001A0000000C9400000C9400000C9400000C9456
:10002A0000000C9400000C9400000C9400000C9446
:10003A0000000C9400000C9400000C9400000C9436
:10004A0000000C9400000C9400000C9400000C9426
:10005A0000000C9400000C9400000C9400000C9416
:10006A0000000C9400000C9400000C9400000C9406
:10007A0000000C9400000C9400000C9400000C94F6
:10008A0000000000020004008C000000F894EE2733
:10009A00ECBBF1E0F5BFE5BFE0936C00F8E1F1BD20
:1000AA00E1BD8DE0A2E0BB27ED938A95E9F780E0F8
:1000BA0090E1A0E0B1E0ED930197E9F7EEE8F0E016
:1000CA0085919591009761F0A591B591059015904C
:1000DA00BF01F00105900D920197E1F7FB01F0CF06
:1000EA008BBFEFEFEDBFE0E1EEBFC0E0D5E00C94CF
:1000FA007E00EFEFE0936100042C0528B1F444245C
:10010A005524E4E6F0E04E165F067CF45A924A92D1
:10011A000E94C100EFEFE093620026D0E0E0E09396
:10012A006200F20131962F01ECCFE4E6F0E0E4152B
:10013A00F505C1F444245524E4E6F0E04E165F06C2
:10014A007CF412D0EFEFE09362005A924A920E9436
:10015A00C100E0E0E0936200F20131962F01ECCF9A
:10016A0044245524C9CFFFCFE4E6F0E0E419F509A9
:10017A00FA93EA930C94C100E991F991309639F017
:10018A0080EA9FE00197F1F7A8953197C9F708959A
:00000001FF
