:040000000C94A900B3
:100004000C9468070C946D070C9400000C94000089
:100014000C9400000C9400000C9400000C9400005C
:100024000C9400000C9400000C9400000C9400004C
:100034000C9400000C94AF060C9400000C94000087
:100044000C9400000C9400000C9400000C9400002C
:100054000C9400000C9400000C9400000C9400001C
:100064000C9400000C9400000C9400000C9400000C
:100074000C9407070C9400000C9400000C940000EE
:100084000C9400000C9400001027E80364000A009C
:10009400010000100001100001006C656674203A34
:1000A4002025642020202063656E746572203A2028
:1000B4002564202020207469676874203A20256410
:1000C4000A006C656674207374616E6461726420E6
:1000D4003A2025642020202063656E7465722073A5
:1000E40074616E64203A20256420202020726967A0
:1000F4006874207374616E64203A20256420202083
:100104002063656E746572207374616E64617464D7
:10011400203A20256420202564202025640009013C
:10012400050406020A0809080A020604050101007A
:100134002D4E414E00494E460000080004052201A0
:1001440008000C052A010100220532010000F89480
:10015400EE27ECBBF1E0F5BFE5BFE0936C00F8E1FE
:10016400F1BDE1BD8DE0A2E0BB27ED938A95E9F7EF
:1001740080E090E1A0E0B1E0ED930197E9F7EEE3D0
:10018400F1E085919591009761F0A591B591059065
:100194001590BF01F00105900D920197E1F7FB0165
:1001A400F0CF8BBFEFEFEDBFE0E1EEBFC0E0D5E0F5
:1001B4000C94EC00E0E0E0939B00E8E1E0939A000B
:1001C400E6E0E0939D00E0E0E0939800E7E6E0934A
:1001D4009900089500E010E020E030E00E9436032A
:1001E400E9DF22D20E9473070E94F8040E941509D5
:1001F40078940E948207E13071F52F5F3F4FD90157
:10020400E5E0F0E00E94630C9F010E941509F901EA
:10021400309719F4E0E1F0E01BC0E130A0E0FA0708
:1002240019F4E0E2F0E014C0E230A0E0FA0719F4B7
:10023400E0E4F0E00DC0E330A0E0FA0719F4E0E8F0
:10024400F0E006C0E430A0E0FA0729F4E0EFF0E0C3
:10025400FA93EA93FED10E948907E13011F00C94DD
:100264001403F9013097B9F40E941B09E2E3F0E0AA
:100274000E942109E4E1F0E0FA93EA930E949F03CB
:100284000E941B09EEE1F0E00E942109E8EEF3E090
:100294000E942609C7C1E130A0E0FA07A9F4EEE9FB
:1002A400F0E0FA93EA930E942A090E942E090E9420
:1002B40033090E942E090E9437090E942E098CE0FE
:1002C4000E94D9082E96AEC1E230A0E0FA0711F0E0
:1002D4000C9495020E9415090E948907E030E1F30D
:1002E400E2E0F0E0FF93EF930E943309AF91BF91F6
:1002F4000E94B30C0E943B090E948907E030E1F39D
:100304000E942A090E944109E0E2F0E00E944609A5
:100314000E948907E030E1F3E4E0F0E0FF93EF931B
:100324000E943709AF91BF910E94B30CE0E8F0E05E
:100334000E9446090E948907E030E1F30E942A09DD
:100344000E944A09EAE0F0E0FF93EF930E94370924
:10035400AF91BF910E94B30CE8E0F0E0FF93EF93FC
:100364000E943309AF91BF910E944F090E94150961
:10037400E0E4F0E00E9446090E9454090530E0E000
:100384001E07D4F40E948907E030E1F3E2E0F0E0D4
:10039400FF93EF930E9433090F010E948D09E00D32
:1003A400F11DAF91BF910E944F090E9492090E94D2
:1003B40015090F5F1F4FE2CF62E070E00E948D09C4
:1003C4000E9495090E949B090E943B090530E0E0C8
:1003D4001E07B4F40E948907E030E1F30E942A0961
:1003E4000F010E94A309E00DF11D0E9441090E9422
:1003F400A8090E9492090E9415090F5F1F4FE6CFBA
:100404000E94A3090E9495090E94410900E010E09E
:10041400E4EFF1E00E942609E0E3F0E00E944609DF
:100424000530E0E01E07D4F40E948907E030E1F3D0
:10043400E4E0F0E0FF93EF930E9437090F010E947C
:10044400AB09E00DF11DAF91BF910E944F090E94CD
:1004540092090E9415090F5F1F4FE2CF64E070E01C
:100464000E94AB090E9495090E949B09E0EBF0E011
:100474000E9446090530E0E01E07ACF50E9489079A
:10048400E030E1F30E94B009FF93EF930E942A0940
:10049400AF91BF91EA0FFB1F0E944A090E94B50960
:1004A400FF93EF930E943309AF91BF91EA0FFB1FB3
:1004B400A8E0B0E00E94B30C0E94BA09FF93EF9346
:1004C4000E943709AF91BF91EA0FFB1FAAE0B0E089
:1004D4000E94B30C0E94A8090E9492090E94150967
:1004E4000F5F1F4FC7CF0E94B0090E9495090E9459
:1004F4004A0968E070E00E94B5090E949509DB0191
:100504000E94B30C6AE070E00E94BA090E94950947
:100514000E949B090E94A8090E941509E0EEF0E0E0
:100524000E9446097FC0E330A0E0FA0711F00C9462
:10053400F4020E9454090E942A090F010E94A3098F
:100544000E161F0648F40E94BF090E94BF09E4EF7B
:10055400F1E00E9426093DC00E9433090F010E9468
:100564008D09E015F10550F50E9437090F010E942D
:10057400AB090E161F0638F40E94C5090E94C5096E
:10058400E4EFF1E012C0E0E4F0E00E944609E0E8A4
:10059400F0E00E9446090E941B090E941B090E9468
:1005A400CB090E94CB09E4E6F0E0FA93EA930E94B7
:1005B400E10A0E941B090E941B0913C00E9433090F
:1005C4000F01A2E0B0E0EEE0F0E0FA93EA930E94BB
:1005D4008505EEE0F0E0FA93EA930E9485050E9417
:1005E4001B09A9CFE430A0E0FA07E1F40E941B093B
:1005F4000E941B090E941B090E941B090E94C50935
:100604000E94C509E0EDF7E00E9426090E941B093B
:100614000E941B090E941B090E941B090E94BF091A
:100624000E94BF09E6CDFFCFE0916200EF70E09336
:100634006200E0916100E06FE09361000895A2E63A
:10064400B0E00A2EEC91A881EA2BA02DEC930C9437
:10065400C903A2E6B0E00A2EAC91E881E095EA2352
:10066400A02DEC930C94C903E8B3EF71E8BBE7B396
:10067400E06EE7BBE0916200E87FE0936200E09106
:100684006100E87FE0936100E0E4E7B9E7E8E6B9F8
:100694000895E881E064E7B985E38A95F1F7369A2D
:1006A400349BFECF349AE4B1F5B10C9496071A93B7
:1006B4000A93EA81F0E0309729F4C59A0E94D1099F
:1006C400C59811C0E130A0E0FA0729F4C69A0E9447
:1006D400D109C69808C0E230A0E0FA0721F4C79A0D
:1006E4000E94D109C798F801198108810C94A207C6
:1006F4000E94DB09E881F9810E94E609EA0FFB1FE9
:100704000E94EB09E881F9810E94F009EA0FFB1FBE
:100714000E94F5090E94E609EFEFFFEFEA17FB07D5
:1007240010F40E94EB090E94F009EFEFFFEFEA17C3
:10073400FB0710F40E94F5092AC00E94DB09A88176
:10074400B981E0910005F0910105EA1BFB0B0E94C1
:10075400EB09A881B981E0910205F0910305EA1B38
:10076400FB0B0E94F5090E94E609A03BEEEFBE07D1
:1007740020F4E0EBFEEF0E94EB090E94F009A03B9D
:10078400EEEFBE0720F4E0EBFEEF0E94F50922969F
:1007940008950E94FA098F010E9437090E94FF09F7
:1007A4000E94AB092E173F072CF00E948D090E17EB
:1007B4001F073CF40E94090AE0E0F0E00E94D30C19
:1007C400CAC20E94BA092E173F07ECF4F5010E9431
:1007D400120A0E94170A5F01F6010E941E0A0E9473
:1007E4002A0AEA15FB0520F40E94310A3F965F01AC
:1007F4000E94310A3F97CE16DF0620F40E94310A88
:100804003F976F0102C04F5F5F4F0E94B5090E17FB
:100814001F07ECF4F5010E941E0A5F01F6010E9415
:10082400120A0E94170A0E942A0AEC15FD0520F4F8
:100834000E94310A3F966F010E94310A3F97AE161B
:10084400BF0620F40E94310A3F975F0102C04F5F48
:100854005F4FE2E0F0E0E417F50711F40E94090AA3
:100864000E94360A0E94D30C76C20E94FA098F01B4
:100874000E9437090E94FF090E94BA09E217F30790
:100884005CF40E943F0A10F40E944A0A0E944E0A35
:1008940010F40E94530A24C00E94BA092E173F077D
:1008A4005CF40E94570A10F40E94620A0E94660ACD
:1008B40010F40E946B0A02C04F5F5F4F0E94B5099B
:1008C4000E171F075CF40E943F0A10F40E944A0AA4
:1008D4000E944E0A10F40E94530A02C04F5F5F4FF9
:1008E4000E94B509E017F1075CF40E94570A10F45E
:1008F4000E94620A0E94660A10F40E946B0A24C0D5
:100904000E94BA092E173F075CF40E94570A10F49C
:100914000E94620A0E94660A10F40E946B0A02C0D6
:100924004F5F5F4F0E94B5090E171F075CF40E94CA
:100934003F0A10F40E944A0A0E944E0A10F40E94D0
:10094400530A02C04F5F5F4F0E94AB092E173F0747
:10095400F4F40E94B5090E171F0754F40E943F0ACD
:1009640010F40E944A0A0E944E0A10F40E94530A8C
:100974000E94B509E017F10754F40E94570A10F4D5
:100984000E94620A0E94660A10F40E946B0A0E9486
:10099400AB090E171F07F4F40E94BA092E173F077C
:1009A40054F40E94570A10F40E94620A0E94660AD4
:1009B40010F40E946B0A0E94BA09E217F30754F478
:1009C4000E943F0A10F40E944A0A0E944E0A10F440
:1009D4000E94530AE2E0F0E0E417F50711F40E94E4
:1009E400090AE0E0F0E00E94D30CB5C12897E2B315
:1009F400EF70E2BBE1B3E06FE1BBE3B1EF70E3B9E9
:100A0400E2B1E06FE2B9E0E0EFBDE4E0EEBDE0E0CA
:100A1400EDBDECBDE7BDE6BDEBBDEABDE9BDE8BD9E
:100A2400E0937900E0937800E0938B00E4E0E093B6
:100A34008A00E0E0E0938900E0938800E09381007D
:100A4400E0938000E0938700E0938600E0938500C4
:100A5400E0938400E0938300E0938200E4E0E7BF46
:100A6400E0937D004424552466247724E8E7FFEFCF
:100A7400E0931405F09315050E94310A0E94EB09D6
:100A84000E94310A0E94F509E2B3EF70E2BBE4E090
:100A9400E7BFE0937D00EBE4F5E16DEC7EE3EC83EE
:100AA400FD836E837F83EAEBFAE161ED7EE30E94CE
:100AB4008C0C0E946F0AA0E0B0E089E393E40E94EA
:100AC400740AE0931605F09317050E946F0AABEFC2
:100AD400B1E281E992E40E94740AE0931805F0936C
:100AE40019050E946F0A0E94790AE0931A05F0938F
:100AF4001B050E94870C0E94790AE0931C05F09361
:100B04001D05289608950E94CE0C00E010E020E018
:100B140030E0E4E0EEBDE0938A009C80E0E0E09306
:100B24001E05E0931F05EC81FD81E430A0E0FA0787
:100B3400D9F40E947E0A0E171F072CF00E947E0A29
:100B44002E173F0784F425DE0E94360AE0911E0525
:100B5400E03011F00E94830AE0911F05E03011F0AB
:100B64000E94890AE6CFF1C0E830A0E0FA0751F507
:100B74000E947E0AF595E7950E171F071CF02E17A5
:100B84003F07FCF40E9433090F010E94B0090E16BE
:100B94001F06B8F4E0911E05E03021F4E0911F0532
:100BA400E03011F00E948F0AE0911E05E03011F050
:100BB4000E94830AE0911F05E03011F00E94890A27
:100BC400D7CFC3C0EE30A0E0FA0751F50E947E0AE9
:100BD4000E94340C0E171F071CF02E173F07FCF45D
:100BE4000E9433090F010E94B0090E161F06B8F4C3
:100BF400E0911E05E03021F4E0911F05E03011F092
:100C04000E948F0AE0911E05E03011F00E94830AD1
:100C1400E0911F05E03011F00E94890AD7CF95C0FA
:100C2400EF30A0E0FA0751F50E947E0A0E94320CD0
:100C34000E171F071CF02E173F07FCF40E94330900
:100C44000F010E94B0090E161F06B8F4E0911E05AC
:100C5400E03021F4E0911F05E03011F00E948F0A8A
:100C6400E0911E05E03011F00E94830AE0911F0517
:100C7400E03011F00E94890AD7CF67C0ED30A0E0C0
:100C8400FA0721F0EC30A0E0FA07E1F4E0911C054A
:100C9400F0911D052E173F073CF0E0911C05F091E3
:100CA4001D050E171F076CF4E0911E05E03011F0CE
:100CB4000E94830AE0911F05E03011F00E94890A26
:100CC400E5CF43C0E530A0E0FA0721F0E630A0E02C
:100CD400FA07E1F4E0911A05F0911B050E171F07BE
:100CE4003CF0E0911805F09119052E173F076CF4BC
:100CF400E0911E05E03011F00E94830AE0911F0587
:100D0400E03011F00E94890AE5CF1FC0E730A0E06F
:100D1400FA07D9F4A0911C05B0911D05E2E0F0E0BA
:100D24000E94460C0E171F071CF02E173F076CF489
:100D3400E0911E05E03011F00E94830AE0911F0546
:100D4400E03011F00E94890AE5CFE0E0EEBDE093C7
:100D54008A000E94D50C269608950E949A0AE530CE
:100D6400A0E0FA07A1F40E94A60AE029E2BB0E94CF
:100D7400A60AE15FE021E2BBF20131972F010024D2
:100D8400401450041CF4E7E0F0E02F0133C0E630D7
:100D9400A0E0FA0721F0E730A0E0FA0709F404C064
:100DA400EE30A0E0FA0709F404C0E930A0E0FA0745
:100DB40009F404C0E430A0E0FA0709F404C0E83000
:100DC400A0E0FA0709F404C0ED30A0E0FA0791F4BA
:100DD4000E94A60AE029E2BB0E94A60AE15FE02184
:100DE400E2BBF20131962F01D201E8E0F0E00E946B
:100DF400630C2F01E1E0E0931E05E0910105F07022
:100E0400EDBDE0910005ECBD57C00E949A0AE630A2
:100E1400A0E0FA0721F0E730A0E0FA07A1F40E946D
:100E2400AF0AE029E3B90E94AF0AE15FE021E3B928
:100E3400F30131973F010024601470041CF4E7E0CF
:100E4400F0E03F012EC0E930A0E0FA0721F0E430E1
:100E5400A0E0FA0709F404C0E830A0E0FA0709F4B6
:100E640004C0EE30A0E0FA0709F404C0E530A0E0C5
:100E7400FA0709F404C0EC30A0E0FA0791F40E94E8
:100E8400AF0AE029E3B90E94AF0AE15FE021E3B9C8
:100E9400F30131963F01D301E8E0F0E00E94630CD6
:100EA4003F01E1E0E0931F05E0910305E093890031
:100EB400E0910205E0938800E991EFBFF991E9918F
:100EC400B991A9919991199009901895EA93E1E043
:100ED400E093200504C0EA93E1E0E0932105E99161
:100EE4001895E2B3EC7FE2BBE1B3EC7FE1BBEAE04F
:100EF400E0936A00E0E0EABFE3E0E9BFE8BF0895F9
:100F04001A9310912005E0E0E093200506C01A939F
:100F140010912105E0E0E0932105E12F1991089556
:100F24005D9BFECFE881ECB921960895EA81EA93AE
:100F3400F7DFA881B981ED91FD913196FE93EE938F
:100F44002396089526970E94CC0C10E0AC85BD85AD
:100F5400E0E0F0E0ED93FC93EA89FB893196EA8BBB
:100F6400FB8B3197E4912E2FE03011F40C94D108CF
:100F7400E12FE03039F4253211F411E002C00E946F
:100F8400B80A0CC1E130A9F4253219F40E94B80A58
:100F940004C112E040E000E02D3211F401E0FEC093
:100FA4002B3211F44BE2FAC0203211F440E2F6C0C5
:100FB40002C0E23039F450E013E0203311F4006849
:100FC400EDC004C0E33011F00C94D008203310F0CD
:100FD4002A3308F007C0AAE05A9F502DE22FE053AD
:100FE4005E0FDCC0E22FE33649F40E94C10AE889AF
:100FF400F989A481AA930E94C70ACFC0E33741F4B8
:101004000E94C10A0E94CF0A0E9400091E2F0AC032
:10101400E03761F40E94C10A0E94CF0A0E940A09C3
:101024001E2F086002600F7730E035C0E43611F0FF
:10103400E93611F4046002C0E53731F4ECE8F0E07D
:10104400EE83FF8315E00DC0E83511F4086004C099
:10105400E83711F00C94CF08E6E9F0E0EE83FF8363
:1010640014E002FF14C00E94C10A0E94D90AAB8591
:10107400AA233AF4EA85FB850E94260CEA87FB87BB
:101084004DE2403011F01F5F01C00B7F04C00E948D
:10109400C10A0E94D90A00FD11C0151778F407FF90
:1010A40008C002FF04C00B7F242F115001C020E3AD
:1010B40001C020E20E94B80A5150EFCF312F01FF46
:1010C40017C03030A1F003FF06C0EE81FF812591E7
:1010D400EE83FF8305C0AE81BF812D91AE83BF83B4
:1010E4000E94B80A503009F051503150EACF4BC039
:1010F40020E3EE81FF810E94830CE887F987EE816B
:10110400FF813296EE83FF83E885F985AA85BB8546
:10111400AE17BF0750F02F5FA885B985EA85FB8518
:10112400EA1BFB0BEA87FB87EFCF2A3328F003FF88
:1011340002C0295F01C0295D04FD1AC0213320F4D7
:10114400A885B985119709F409C0531710F000FF59
:1011540001C013C020E207FF0BC020E3006102FFBF
:1011640007C00B7F4A930E94C70A503009F05150C0
:101174000E94B80A503009F051503150A885B98501
:10118400129708F0B5CF00FF08C0503031F051502D
:10119400E0E2EA930E94C70AF8CF10E0DDCEAC8506
:1011A400BD850E947F0C0E94D30C64960895FF9223
:1011B400F82E26971A930A93DE0114960E94220CA5
:1011C4008D01E0E0EC83ED83EE83EF83DE0118967E
:1011D4000E94220C0E947F0CFA93EA931A930A93BA
:1011E400E8E9F7E0FA93EA93FE013896FA93EA9372
:1011F400A9DE198108812896FF900895A991B991D3
:10120400EE27FF276D91662311F03196FBCF0895E9
:10121400AA27BB27E991F9910590002011F01196B6
:10122400FBCFFD010895E0EFF0E0FA93EA930C940C
:101234002103EEE0F0E0FA93EA930C948505FA9327
:10124400EA930E947A03F5CFFA93EA930C94E10AA5
:10125400E1E0EA930C945903662777270E94910CE6
:101264000895E0E0EA930C945903E2E0EA930C94C5
:101274005903E0E1F0E0FA93EA930C942B03A0E025
:10128400B0E00E94B30C0895FA93EA930C942B03F4
:10129400A6E0B0E00E94B30C08950E94B30CE0EF06
:1012A400F0E0F2CFE6ECF0E0FA93EA93A0E0B0E0ED
:1012B4000E94A30C0E94390C0E94910CA2E0B0E0A1
:1012C4000E94A30C0E94390C0E94910CA4E0B0E08F
:1012D4000E94A30C0E94390C0E94910CA6E0B0E07D
:1012E4000E94A30C0E94390C0E94910CA8E0B0E06B
:1012F4000E94A30C0E94390C0E94910CAAE0B0E059
:101304000E94A30C0E94390C0E94910C88E10E9457
:10131400D9086A960895A2E0B0E00E94A30C08954B
:10132400E4E6F0E091CFDF01E6E0F0E00E945E0C3D
:101334000895DB010E94B30C00E010E0E4EFF1E05B
:1013440083CFA0E0B0E00E94A30C0895E0EFF0E0AA
:101354009BCFA4E0B0E00E94A30C0895A6E0B0E007
:101364000E94A30C0895A8E0B0E00E94A30C089585
:10137400AAE0B0E00E94A30C0895ECE0F0E0FA9338
:10138400EA930C948505EDE0F0E0FA93EA930C946B
:101394008505E5E0F0E0FA93EA930C94850588EC82
:1013A40090E00197F1F7EA81EA930E944B038F01E1
:1013B4000895E8E7FFEFE0930005F0930105E0935B
:1013C4000205F09303050895A0910005B09101056D
:1013D4000895E0930005F09301050895A091020596
:1013E400B09103050895E0930205F0930305089571
:1013F4000E94CC0C40E050E02BCF9F01A090000550
:10140400B0900105C0900205D09003050895A09006
:101414001405B0901505C0901405D09015050895D5
:10142400662777270E94530B0895A0E0B0E080E27E
:1014340090E40E948D0B0895F3DFDF01CB01E0E01F
:10144400F0E060E270E40E94960C0E94860B08951E
:101454006F01E0911405F09115053F960895E09110
:101464001405F09115050895A0920005B0920105A8
:10147400C0920205D09203050895F50132975F01E9
:10148400F60131966F01EBDF7496EC15FD050895B6
:10149400E6DF74966F010895E2DF7497AE16BF0617
:1014A4000895DDDF74975F010895F50131965F01BA
:1014B400F60132976F01D3DF7496EA15FB050895A0
:1014C400CEDF74965F010895CADF7497CE16DF06E7
:1014D4000895C5DF74976F010895EC81FD816E81D5
:1014E4007F8108950E94DD0B0E941C0B0895ADEDD1
:1014F400B2ED85E892E4F6CFE0911605F091170578
:1015040008950F5F1F4FE0E0E0931E0508952F5FDD
:101514003F4FE0E0E0931F050895A0900005B090D0
:101524000105C0900205D09003050E9437049CCFAA
:101534000A921A929A93AA93BA93EA93FA93EFB7F8
:10154400EA93E92DF0E0089502B2ACE0B5E0A40D11
:10155400B51DEC91E295E07F089503B0A4E0B5E0F9
:10156400A60DB71DEC91E295E07F08952A93ED85D1
:10157400FE85FA93EA93E989FA8909950895E88939
:10158400F9893497E88BF98B0895ED85FE85FA93F4
:10159400EA93E989FA8909950895A889B98914967D
:1015A4000E947F0CEE83FF83FA93EA930895A8893F
:1015B400B98914960E947F0CEA87FB870895E99104
:1015C400F991309639F080EA9FE00197F1F7A895F8
:1015D4003197C9F70895552342F4503811F4E0FFC8
:1015E40004C03196691F791F6BF050E8572711F436
:1015F4005F93CFC05F3F31F0660F000C579567953E
:10160400752F08955F9300200AF0CFC0C8C050E83A
:10161400192E1522880F991F9527550F879550E885
:10162400072E0522660F771F7527550F67950895B6
:10163400689401C0E8945F93F2DF703818F07F3F3C
:1016440008F4A7C056E1571BAAF4519558300EF47C
:10165400593030F0EFEFFFEF6FEF7FE777F91AC003
:1016640077275523B9F0EE0FFF1F661F771F5A9592
:10167400D1F710C07727583028F0EF2FF62F672FB7
:101684005850F9CF552331F076956795F795E7953E
:101694005A95D1F700200AF4DBD05F91089568943D
:1016A40001C0E894309760407040B1F0002426F007
:1016B400772312F40094CCD0172E7EE1112032F05F
:1016C4007A95EE0FFF1F661F111CF9CFEF2FF62F2F
:1016D400612D5F938ADF5F9108954F93AF01FD0100
:1016E400DA01AB01BC01CA01402D012C142E4F912B
:1016F4000895EA0FFB1F681F0895E095F095609523
:10170400EF5FFF4F6F4F08955F9381DF903871F162
:1017140050E8152604C05F937ADF903839F17038A9
:1017240021F1572F591B2BF112F4D7DFFACF58317F
:1017340018F0AA27BB278827583028F0AB2FB82FDA
:1017440088275850F9CF552329F08695B795A79542
:101754005A95D9F7502D512572F0CBDF38F467959F
:10176400F795E795739513F420C0B7DF3EDF5F91DB
:101774000895D8F7FBCFEA1BFB0B680B51F010F46C
:101784000094BBDF662392F3EE0FFF1F661F7A956A
:10179400CBF7EE27FF27662777275F910895EFEFB2
:1017A400FFEF6FE77FEF5F910895EFEFFFEF6FE7D4
:1017B4007FE75F9108955F932ADF703821F4112049
:1017C4000AF4EDCFF2CF903809F4E3CF0124089462
:1017D400970B1BF4D4F30020F3CF792F1F932F938F
:1017E4003F934F931124112722273327442755274A
:1017F40090E2AE17BF078607410730F0AE1BBF0B60
:10180400860B410B089401C08894551F221F331F77
:10181400111CAA1FBB1F881F441F9A9551F7F90179
:10182400612D4F913F912F911F91662332F0550FF7
:10183400EE1FFF1F661F7A9543F2CDDE5F91089578
:101844000024AF0DB01D0895F195E195F040089581
:10185400F09560957095E195FF4F6F4F7F4F089518
:10186400F595E795F595E795F595E79508956F2F27
:10187400660F660B762F0895FA9FF02DEB9FF00DFF
:10188400EA9FE02DF10D08952AD0F6DF0EF4DCDF97
:1018940008950024112490E1AA0FBB1F001C111C01
:1018A4000E1A1F0A18F40E0E1F1E01C0A1609A958D
:1018B40099F7FD01D001089512D0EBDF0EF4C4DFD7
:1018C4000895E894B7FF04C0A095B0951196689464
:1018D400F7FDBADFDEDFFD010EF4B6DF0895E8940C
:1018E400F7FF02C0B1DF6894B7FF06C0A095B095BA
:1018F400119600F8039400FA0895ED91FC91119764
:1019040008950590F491E02D0895E881F9816A81A4
:101914007B810895E883F9836A837B8308957A93AE
:101924006A93FA93EA930895182E862F612D192E3F
:10193400972F712D1B2EBF2FF12D1A2EAE2FE12DB7
:101944000895119602D0FE2F1197E199FECFFF93CF
:10195400FFB7F894AEBBBFBBE09AEDB3FFBFFF91F6
:10196400089507D01196EF93EF2F03D0EF911197BD
:101974000895E19B02C0A895FCCF9FB7F894AEBB35
:10198400BFBBE09A8DB3E81719F0EDBBE29AE19A78
:101994009FBF08955A934A933A932A931A930A93AA
:1019A40008955D814C813B812A81198108810895C4
:00000001FF
