:060000000C9469000C9451
:100006009C000C94A0000C9400000C9400000C942E
:1000160000000C9400000C9400000C9400000C945A
:1000260000000C9400000C9400000C9400000C944A
:1000360000000C9400000C9400000C9400000C943A
:1000460000000C9400000C9400000C9400000C942A
:1000560000000C9400000C9400000C9400000C941A
:1000660000000C9400000C9400000C9400000C940A
:1000760000000C9400000C9400000C9400000C94FA
:1000860000000C9400001027E80364000A00010039
:100096000010000110000100000000000000000038
:1000A60043454E544552203A202564204C4546543B
:1000B600203A202564205249474854203A20256496
:1000C6000D0A0000080006009E000000F894EE27C6
:1000D600ECBBF1E0F5BFE5BFE0936C00F8E1F1BDE4
:1000E600E1BD8DE0A2E0BB27ED938A95E9F780E0BC
:1000F60090E1A0E0B1E0ED930197E9F7EAECF0E0DA
:1001060085919591009761F0A591B591059015900F
:10011600BF01F00105900D920197E1F7FB01F0CFC9
:100126008BBFEFEFEDBFE0E1EEBFC0E0D5E00C9492
:100136000801EA93E1E05E2E03C0EA93E1E04E2E69
:10014600E9911895E2B3EC7FE2BBE1B3EC7FE1BB4A
:10015600EAE0E0936A00E0E0EABFE3E0E9BFE8BF77
:100166000895E8B3EF71E8BBE7B3E06EE7BBE09153
:100176006200E87FE0936200E0916100E87FE0932F
:100186006100E0E4E7B9E7E8E6B90895E881E064EC
:10019600E7B985E38A95F1F7369A349BFECF349A10
:1001A600E4B1F5B10C943A011A930A93EA81F0E0AE
:1001B600309729F4C59A0E94B902C59811C0E1305A
:1001C600A0E0FA0729F4C69A0E94B902C69808C0A8
:1001D600E230A0E0FA0721F4C79A0E94B902C79854
:1001E600F801198108810C944601E0E0E0939B0038
:1001F600E8E1E0939A00E6E0E0939D00E0E0E0931A
:100206009800E7E6E093990008951FD0AADFEDDF96
:1002160099DF552444247894E4E1F0E0FA93EA93D4
:100226000E94F402E6EAF0E0FA93EA93E0E00E9424
:10023600C302E1E00E94C302E2E00E94C3028CE036
:100246000E947D022E96E8CFFFCFE0916200EF700C
:10025600E0936200E0916100E06FE0936100089531
:10026600E0919B00E072E1F3E881E0939C00219627
:100276000895EA81EA93F4DFA881B981ED91FD91B1
:100286003196FE93EE932396089526970E941503C2
:1002960010E0AC85BD85E0E0F0E0ED93FC93EA89E3
:1002A600FB893196EA8BFB8B3197E4912E2FE03058
:1002B60011F40C947502E12FE03039F4253211F473
:1002C60011E002C00E94CB020CC1E130A9F4253234
:1002D60019F40E94CB0204C112E040E000E02D3286
:1002E60011F401E0FEC02B3211F44BE2FAC02032C9
:1002F60011F440E2F6C002C0E23039F450E013E0F7
:10030600203311F40068EDC004C0E33011F00C9402
:100316007402203310F02A3308F007C0AAE05A9F6F
:10032600502DE22FE0535E0FDCC0E22FE33649F496
:100336000E94D402E889F989A481AA930E94DA026C
:10034600CFC0E33741F40E94D4020E94E2020E9429
:10035600A4021E2F0AC0E03761F40E94D4020E9454
:10036600E2020E94AE021E2F086002600F7730E0A4
:1003760035C0E43611F0E93611F4046002C0E53701
:1003860031F4ECE8F0E0EE83FF8315E00DC0E835CC
:1003960011F4086004C0E83711F00C947302E6E922
:1003A600F0E0EE83FF8314E002FF14C00E94D40243
:1003B6000E94EC02AB85AA233AF4EA85FB850E94EB
:1003C6000403EA87FB874DE2403011F01F5F01C04E
:1003D6000B7F04C00E94D4020E94EC0200FD11C0F3
:1003E600151778F407FF08C002FF04C00B7F242FFF
:1003F600115001C020E301C020E20E94CB025150FF
:10040600EFCF312F01FF17C03030A1F003FF06C038
:10041600EE81FF812591EE83FF8305C0AE81BF810A
:100426002D91AE83BF830E94CB02503009F051500C
:100436003150EACF4BC020E3EE81FF810E940C03CE
:10044600E887F987EE81FF813296EE83FF83E885A0
:10045600F985AA85BB85AE17BF0750F02F5FA88523
:10046600B985EA85FB85EA1BFB0BEA87FB87EFCF9D
:100476002A3328F003FF02C0295F01C0295D04FD6D
:100486001AC0213320F4A885B985119709F409C04B
:10049600531710F000FF01C013C020E207FF0BC086
:1004A60020E3006102FF07C00B7F4A930E94DA0235
:1004B600503009F051500E94CB02503009F0515093
:1004C6003150A885B985129708F0B5CF00FF08C04E
:1004D600503031F05150E0E2EA930E94DA02F8CF50
:1004E60010E0DDCEAC85BD850E9408030E941C038A
:1004F60064960895FF92F82E26971A930A93DE01C2
:1005060014960E9400038D01E0E0EC83ED83EE83F8
:10051600EF83DE0118960E9400030E940803FA93F7
:10052600EA931A930A93ECE3F1E0FA93EA93FE0155
:100536003896FA93EA93A9DE198108812896FF90E6
:100546000895A991B991EE27FF276D91662311F0C1
:100556003196FBCF0895AA27BB27E991F99105901B
:10056600002011F01196FBCFFD01089588EC90E074
:100576000197F1F7EA81EA930E94C9008F01089575
:10058600EA930E94D700662777270E9410030895F2
:100596002A93ED85FE85FA93EA93E989FA89099506
:1005A6000895E889F9893497E88BF98B0895ED85E4
:1005B600FE85FA93EA93E989FA8909950895A88947
:1005C600B98914960E940803EE83FF83FA93EA938F
:1005D6000895A889B98914960E940803EA87FB87BB
:1005E6000895E991F991309639F080EA9FE00197F4
:1005F600F1F7A8953197C9F708950024AF0DB01DFE
:100606000895F195E195F0400895ED91FC911197CB
:1006160008950590F491E02D08957A936A93FA93DC
:10062600EA9308955A934A933A932A931A930A930C
:1006360008955D814C813B812A8119810881089545
:00000001FF
