:020000000C945E
:1000020077000C940A060C940F060C9400000C94D2
:1000120000000C9400000C9400000C9400000C945E
:1000220000000C9400000C9400000C9400000C944E
:1000320000000C9400000C9438050C9400000C9401
:1000420000000C9400000C9400000C9400000C942E
:1000520000000C9400000C9400000C9400000C941E
:1000620000000C9400000C9400000C9400000C940E
:1000720000000C948D050C9400000C9400000C946C
:1000820000000C9400000C9400001027E8036400A8
:100092000A0001000010000110000100000078FFBA
:1000A20078FF0901050406020A0809080A02060483
:1000B2000501020001002D4E414E00494E4600004E
:1000C200020004009E0002001405A00002001205B6
:1000D200A20008001805A40008002005AC000200D8
:1000E2000A00B40001003205B6000000F894EE27C1
:1000F200ECBBF1E0F5BFE5BFE0936C00F8E1F1BDC8
:10010200E1BD8DE0A2E0BB27ED938A95E9F780E09F
:1001120090E1A0E0B1E0ED930197E9F7E2ECF0E0C5
:1001220085919591009761F0A591B59105901590F3
:10013200BF01F00105900D920197E1F7FB01F0CFAD
:100142008BBFEFEFEDBFE0E1EEBFC0E0D5E00C9476
:10015200AA00E0E0EBB9E8E1EAB9E6E0E093950055
:10016200E0E0E0939000E7E6E9B9E0E0E0939B008D
:10017200E8E1E0939A00E6E0E0939D00E0E0E0939E
:100182009800E7E6E09399000E94CE020E948A025C
:10019200A3D10E94EB05E0E0E0930C05E0930D058E
:1001A200E0930E05E0930F057894E8E7FFEFE09304
:1001B2000805F0930905E0930A05F0930B050E94E8
:1001C200FA05E13011F00C943201F20131962F015F
:1001D200D2010E9415062F010E941A06F2013097E1
:1001E20019F4E0E1F0E03AC0E130A0E0FA0719F4D6
:1001F200E0E2F0E033C0E230A0E0FA0729F40E9426
:100202002006E0E1F0E02AC0E330A0E0FA0719F4AA
:10021200E0E4F0E023C0E430A0E0FA0729F40E9411
:100222002606E0E4F0E01AC0E530A0E0FA0729F47F
:100232000E942006E0E4F0E011C0E630A0E0FA07F8
:1002420039F40E9426060E942006E0E4F0E006C08F
:10025200E730A0E0FA0729F4E0E8F0E0FA93EA9345
:100262004DD10E940106E13011F00C946B02F201B3
:100272003097D1F40E942C060E9430060E942C0670
:100282000E943A060E942C060E9444060E942C06F6
:100292000E944E0662E070E00E945306DB010E945B
:1002A20068060E94200616C1E130A0E0FA0799F420
:1002B2000E9471060E9477060E943A06A4E0B0E00E
:1002C200E0910205F09103050E948A080E941A0635
:1002D2000E947B06FFC0E230A0E0FA0789F40E9488
:1002E2001A060E9481060E9471060E948806ACE0EE
:1002F200B0E00E948A080E9471060E948C06EAC041
:10030200E430A0E0FA07D9F40E9481060E94880630
:100312000E9430060E9488060E943A060E948806C1
:100322000E9444060E9488060E944E060E945306BE
:10033200A0E0B0E00E9468060E942606CBC0E5302D
:10034200A0E0FA07E9F40E941A060E9488060E94B9
:1003520030060E9488060E943A060E9488060E9481
:1003620044060E9488060E944E060E945306A6E09A
:10037200B0E00E948A080E948C060E942606AAC04B
:10038200E630A0E0FA07E1F40E941A060E942C0669
:100392000E9430060E942C060E943A060E942C06F9
:1003A2000E9444060E942C060E944E0668E070E0FD
:1003B2000E945306DB010E948A080E9420068AC01E
:1003C200E730A0E0FA07E1F40E9477060E943006C7
:1003D2000E9477060E943A060E9477060E9444060F
:1003E2000E9477060E944E066AE070E00E94530661
:1003F200DB010E948A080E941A060E947B066AC0DC
:10040200E330A0E0FA0711F00C946B020E9492060E
:100412000E942C060F01A2E0B0E00E949D0678F433
:100422000E9492060E94A2060E941A060E942606B6
:100432000E9471060E94A8060E9471064AC00E948C
:1004420088060F01A0E0B0E00E94AE0698F50E9477
:1004520077060F01A4E0B0E00E949D0698F40E9486
:1004620092060E94A2060E94B30648D00E9471061C
:10047200E6E0F0E0FA93EA930E94D0030E94B3060A
:1004820036D011C00E9492060E94A2060E947B06EC
:10049200E0E8F0E0FA93EA9331D00E9471060E94FC
:1004A200A8060E94A806E8E0F0E0FA93EA930E9408
:1004B200D0030FC00E94B3061AD00E947106A09109
:1004C2001005B0911105119721F4A6E1B5E00E9443
:1004D200BE069ECF74CEFFCFE0916200EF70E09334
:1004E2006200E0916100E06FE09361000895A2E68E
:1004F200B0E00A2EEC91A881EA2B07C0A2E6B0E098
:100502000A2EAC91E881E095EA23A02DEC93229685
:100512000895E8B3EF71E8BBE7B3E06EE7BBE091A3
:100522006200E87FE0936200E0916100E87FE0937F
:100532006100E0E4E7B9E7E8E6B90895E881E0643C
:10054200E7B985E38A95F1F7369A349BFECF349A60
:10055200E4B1F5B1219608951A930A93EA81F0E085
:10056200309729F4C59A0E94C406C59811C0E1309B
:10057200A0E0FA0729F4C69A0E94C406C69808C0E9
:10058200E230A0E0FA0721F4C79A0E94C406C79895
:10059200F80119810881239608952497E2B3EF7038
:1005A200E2BBE1B3E06FE1BBE3B1EF70E3B9E2B10B
:1005B200E06FE2B9E0E0EFBDE4E0EEBDE0E0EDBD0A
:1005C200ECBDE7BDE6BDEBBDEABDE9BDE8BDE0932C
:1005D2007900E0937800E0938B00E4E0E0938A00F6
:1005E200E0E0E0938900E0938800E0938100E093EB
:1005F2008000E0938700E0938600E0938500E0931B
:100602008400E0938300E0938200E4E0E7BFE0939C
:100612007D00EBE4F5E16DEC7EE30E947508A0E05D
:10062200B0E089E193E40E94DE070E949707E0931D
:100632002805F09329050E947008A0E5BAE084E835
:1006420092E40E94DE070E949707E0932C05F09344
:100652002D05249608950E94A30840E050E00E94D0
:100662002C068F010E9477069F010E94CE06DF01B1
:1006720032962E173F075CF4FD01F297E217F3075B
:1006820034F40E94D30632960E171F070CF003C0F3
:100692000E94D806EAC10E94CE06E217F307ACF424
:1006A200F30132973F01F40132960E94E50624F4E9
:1006B2000E94EE0674973F010E94F306E815F905C1
:1006C2001CF40E94F3064F010DC00E94CE062E17A5
:1006D2003F072CF40E94D306E217F3070CF002C086
:1006E2004F5F5F4F0E94D306E017F107ACF4F301AE
:1006F20032963F01F40132970E94F90614F40E94E7
:1007020002070E94EE067496E615F70524F40E948D
:10071200EE0674963F010DC00E94D3060E171F0706
:100722002CF40E94CE06E217F3070CF002C04F5FD2
:100732005F4F0E94D3060E171F072CF4E456F040B9
:10074200E017F1070CF01EC0F3013A973F01F401E4
:100752003A960E94E50624F40E94EE0674973F0141
:100762000E94F306E815F9051CF40E94F3064F01F6
:10077200E0E0F0E00E94AA0878C1E0E0F0E00E9428
:10078200AA0873C1E2E0F0E0E417F50719F40E9449
:10079200D8066BC1E1E0F0E00E94AA0866C10E949F
:1007A200A50800E010E020E030E0E4E0EEBDE093D8
:1007B2008A00DC80E0E0E0932E05E0932F05EC81D7
:1007C200FD81E430A0E0FA07C1F40E9409070E1788
:1007D2001F072CF00E9409072E173F076CF4E091C7
:1007E2002E05E03011F00E940E07E0912F05E03057
:1007F20011F00E941407E9CF32C1E830A0E0FA07F5
:1008020011F00C94D9040E940907F595E7950E178B
:100812001F0724F02E173F070CF0C9C00E9488065C
:100822000E941A0708F4C3C0D501E2E3F0E00E9477
:1008320054085F01E1E0F0E0EA15FB05C1F50E9412
:1008420088060F01ACE0B0E00E949D0630F0A09156
:100852001605B091170513973CF4E0911205F0913B
:10086200130531960E941E070E94EE0631960E94E1
:100872002307A0911205B0911305AD3DEFEFBE071E
:1008820020F0ECEDFFEF0E941E07A0911405B0913D
:100892001505AD3DEFEFBE0720F0ECEDFFEF0E9436
:1008A2002307E1E0F0E0E0931005F0931105F50174
:1008B20031965F010E9488060F01ACE0B0E00E9411
:1008C200AE0630F4A0911605B091170513970CF4FB
:1008D2002EC0E1E0F0E0EA15FB0549F5E0911205D2
:1008E200F091130534970E941E070E94EE0634977A
:1008F2000E942307A0911205B0911305A937EFEFCB
:10090200BE0720F4E8E7FFEF0E941E07A09114053E
:10091200B0911505A937EFEFBE0720F4E8E7FFEF26
:100922000E942307E0E0E0931005E0931105E091B7
:100932002E05E03021F4E0912F05E030E9F00E942D
:1009420088060E941A0798F1E0E1E03059F4E0E2EB
:10095200E03041F4E0E4E03029F4E0E8E03011F482
:10096200E0E001C0E1E0F0E0FA93EA930E9478024D
:100972000E9428070E947B06E0912E05E03049F094
:100982000E9488060E941A0790F00E940E070E9499
:100992002807E0912F05E03049F00E9488060E9466
:1009A2001A0728F00E9414070E9428072CCF57C06C
:1009B200E530A0E0FA07C1F40E9433070E171F07C3
:1009C2002CF00E9433072E173F076CF4E0912E059E
:1009D200E03011F00E940E07E0912F05E03011F097
:1009E2000E941407E9CF3BC0E630A0E0FA07C1F449
:1009F2000E9433070E171F072CF00E9433072E1791
:100A02003F076CF4E0912E05E03011F00E940E07D2
:100A1200E0912F05E03011F00E941407E9CF1FC0CA
:100A2200E730A0E0FA07D9F4A0912C05B0912D058A
:100A3200E2E0F0E00E9437080E171F071CF02E17A5
:100A42003F076CF4E0912E05E03011F00E940E0792
:100A5200E0912F05E03011F00E941407E5CFE0E0AD
:100A6200EEBDE0938A000E94AC08269608950E948B
:100A72003807E530A0E0FA07D9F40E944407EA2BD0
:100A8200E2BB0E944407E15FEA23E2BBACE0B5E0CF
:100A9200ED91FD913197FE93EE93A0910D05AA235E
:100AA20032F4E7E0F0E0E0930C05F0930D0529C085
:100AB200E630A0E0FA0721F0E730A0E0FA0709F4F7
:100AC20004C0E430A0E0FA0709F404C0E830A0E072
:100AD200FA07B9F40E944407EA2BE2BB0E944407DA
:100AE200E15FEA23E2BBACE0B5E00E94BE06A09162
:100AF2000C05B0910D050E941506E0930C05F093CC
:100B02000D05E1E0E0932E05E0910905F070EDBDE1
:100B1200E0910805ECBD54C00E943807E630A0E021
:100B2200FA0721F0E730A0E0FA07D9F40E94500753
:100B3200EA2BE3B90E945007E15FEA23E3B9AEE092
:100B4200B5E0ED91FD913197FE93EE93A0910F05E3
:100B5200AA2332F4E7E0F0E0E0930E05F0930F05EC
:100B620024C0E430A0E0FA0721F0E830A0E0FA0760
:100B720009F404C0E530A0E0FA07B9F40E94500776
:100B8200EA2BE3B90E945007E15FEA23E3B9AEE042
:100B9200B5E00E94BE06A0910E05B0910F050E941D
:100BA2001506E0930E05F0930F05E1E0E0932F05A3
:100BB200E0910B05E0938900E0910A05E09388003B
:100BC200E991EFBFF991E991B991A99199911990A0
:100BD20009901895E2B3EC7FE2BBE1B3EC7FE1BB95
:100BE200EAE0E0936A00E0E0EABFE3E0E9BFE8BFE1
:100BF20008951A9310913005E0E0E093300506C0A5
:100C02001A9310913105E0E0E0933105E12F19913B
:100C12000895EA93E1E0E093300504C0EA93E1E04D
:100C2200E0933105E9911895E8E0F0E00E9454085C
:100C32000895E0EFF0E0FA93EA930C947802E0E290
:100C4200F0E0FA93EA930C947F02E0E1F0E0FA9389
:100C5200EA930C947F02E1E0EA930C94AD02E093F4
:100C62000005F0930105E8E0F0E0FA93EA930C94B2
:100C7200D003E0930205F0930305E8E0F0E0FA9375
:100C8200EA930C94D003E0930405F0930505E8E0A1
:100C9200F0E0FA93EA930C94D003E0930605F09304
:100CA20007050895A0910205B0910305E09104059E
:100CB200F0910505AE0FBF1FE0910605F091070503
:100CC200AE0FBF1FE3E0F0E00E944F0808950E94BC
:100CD2008A08E4EFF1E0FA93EA930E945C07A9CF55
:100CE200E8E0F0E0FA93EA930C94D003E2E0EA93AE
:100CF2000C94AD02E0E4F0E0FA93EA930C947F02E4
:100D0200A6E0B0E0E0E1F7E20E948A080895E0E0A0
:100D1200EA930C94AD02E4EFF1E0FA93EA930C94B7
:100D22005C07E8E7FFEFE0931405F0931505E09305
:100D32001205F093130508950E947A080E161F06F5
:100D42000895E0E0E0931605E09317050895E5E0C5
:100D5200F0E0FA93EA930C94D0030E947A08E0152B
:100D6200F1050895E0E4F0E0FA93EA930E94780234
:100D7200E0E8F0E0FA93EA930895ED91FD9131965F
:100D8200FE93EE93089588EC90E00197F1F7EA81E3
:100D9200EA930E949F028F010895AAE0B0E00E94A8
:100DA2007A080895A8E0B0E00E947A080895609059
:100DB2001405709015058090120590901305E0E0DF
:100DC200F0E00E94AA0808954F01E0911405F09105
:100DD200150574976E167F060895E0911405F0913B
:100DE20015050895E0911205F09113057496089582
:100DF2004F01E0911205F091130574978E169F062C
:100E02000895E0911205F091130574974F0108952A
:100E1200E0912805F091290508950F5F1F4FE0E04A
:100E2200E0932E0508952F5F3F4FE0E0E0932F05FA
:100E320008950F01A6E0B0E090CFE0931205F09381
:100E420013050895E0931405F093150508950E9483
:100E52002C03609208057092090580920A0590920F
:100E62000B050895E0912C05F0912D0508950A9245
:100E72001A929A93AA93BA93EA93FA93EFB7EA93E0
:100E8200ED2DF0E00895E2B3AE2FE0910C05F09164
:100E92000D05E05EFA4FE081E295E07F0895E3B14F
:100EA200AE2FE0910E05F0910F05E85EFA4FE0815A
:100EB200E295E07F0895E991F991309639F080EA60
:100EC2009FE00197F1F7A8953197C9F70895552347
:100ED20042F4503811F4E0FF04C03196691F791FC3
:100EE2006BF050E8572711F45F9355C05F3F31F024
:100EF200660F000C57956795752F08955F93002034
:100F02000AF055C04EC050E8192E1522880F991FBD
:100F12009527550F879550E8072E0522660F771FF4
:100F22007527550F67950895689401C0E8945F93FB
:100F3200F2DF703818F07F3F08F42DC056E1571BDE
:100F4200AAF4519558300EF4593030F0EFEFFFEF1C
:100F52006FEF7FE777F91AC077275523B9F0EE0FC5
:100F6200FF1F661F771F5A95D1F710C07727583099
:100F720028F0EF2FF62F672F5850F9CF552331F075
:100F820076956795F795E7955A95D1F700200AF47B
:100F92005DD05F910895EE27FF27662777275F913F
:100FA2000895EFEFFFEF6FE77FEF5F910895EFEFA7
:100FB200FFEF6FE77FE75F9108955F93A4DF7038DB
:100FC20021F411200AF4EDCFF2CF903809F4E3CFE7
:100FD20001240894970B1BF4D4F30020F3CF792F4C
:100FE2001F932F933F934F931124112722273327C7
:100FF2004427552790E2AE17BF078607410730F016
:10100200AE1BBF0B860B410B089401C08894551F81
:10101200221F331F111CAA1FBB1F881F441F9A9532
:1010220051F7F901612D4F913F912F911F91662345
:1010320032F0550FEE1FFF1F661F7A9543F247DF0E
:101042005F910895F195E195F0400895F0956095CE
:101052007095E195FF4F6F4F7F4F0895FA9FF02DE6
:10106200EB9FF00DEA9FE02DF10D08952AD0F6DFF7
:101072000EF4E8DF08950024112490E1AA0FBB1FAB
:10108200001C111C0E1A1F0A18F40E0E1F1E01C09E
:10109200A1609A9599F7FD01D001089512D0EBDF76
:1010A2000EF4D0DF0895E894B7FF04C0A095B09580
:1010B20011966894F7FDC6DFDEDFFD010EF4C2DF94
:1010C2000895E894F7FF02C0BDDF6894B7FF06C039
:1010D200A095B095119600F8039400FA0895E8815E
:1010E200F9816A817B810895E883F9836A837B832E
:1010F2000895119602D0FE2F1197E199FECFFF932A
:10110200FFB7F894AEBBBFBBE09AEDB3FFBFFF9150
:10111200089507D01196EF93EF2F03D0EF91119717
:101122000895E19B02C0A895FCCF9FB7F894AEBB8F
:10113200BFBBE09A8DB3E81719F0EDBBE29AE19AD2
:101142009FBF08955A934A933A932A931A930A9304
:1011520008955D814C813B812A811981088108951E
:00000001FF
